:100000000C942A000C944D010C9474010C949B01E7
:100010000C94C2010C94E9010C9410020C94370268
:100020000C945E020C9485020C94AC020C94D302E6
:100030000C94FA020C9421030C9448030C946F0363
:100040000C9496030C94BD030C94E4030C940B04E1
:100050000C94320411241FBECFE5D8E0DEBFCDBF23
:1000600010E0A0E6B0E0E8E1FDE002C005900D92EE
:10007000A236B107D9F710E0A2E6B0E001C01D92A8
:10008000AD38B107E1F70E945C050C948A060C9428
:100090000000813049F0813028F0823039F083301F
:1000A00041F406C06ABB089567BB089564BB089518
:1000B00061BB0895813049F0813028F0823039F0F9
:1000C000833041F406C06BBB089568BB089565BBDF
:1000D000089562BB0895813059F0813028F0823054
:1000E00059F0833081F40CC08BB380958BBB08959D
:1000F00088B3809588BB089585B3809585BB0895A6
:1001000082B3809582BB0895813049F0813028F018
:10011000823039F0833049F406C08BB3089588B338
:10012000089585B3089582B3089580E00895442327
:1001300019F04F3FD1F521C0813069F0813028F0AE
:10014000823079F08330C9F412C08AB3962F90952B
:1001500089238ABB1BC087B3962F9095892387BBC1
:1001600019C084B3962F9095892384BB17C081B39F
:10017000962F9095892381BB15C0813059F081302D
:1001800028F0823059F0833081F40CC08AB3682B98
:100190006ABB089587B3682B67BB089584B3682B47
:1001A00064BB089581B3682B61BB0895442319F0A3
:1001B0004F3FB1F51DC0813061F0813028F08230B1
:1001C00069F0833069F50FC08BB3609568236BBB12
:1001D000089588B36095682368BB089585B36095DA
:1001E000682365BB089582B36095682362BB089558
:1001F000813059F0813028F0823059F0833081F419
:100200000CC08BB3682B6BBB089588B3682B68BB9D
:10021000089585B3682B65BB089582B3682B62BBD4
:100220000895813059F0813028F0823059F08330C0
:1002300081F40CC08BB368276BBB089588B3682723
:1002400068BB089585B3682765BB089582B36827A6
:1002500062BB0895813051F0813028F0823049F03E
:10026000833069F409C089B368230AC086B3682360
:1002700007C083B3682304C080B3682301C060E073
:1002800081E0662309F480E008958FB780688FBF0E
:1002900008958FB78F778FBF08951F920F920FB673
:1002A0000F9211242F933F934F935F936F937F93FC
:1002B0008F939F93AF93BF93EF93FF93E0917D0054
:1002C000F0917E000995FF91EF91BF91AF919F91C1
:1002D0008F917F916F915F914F913F912F910F90EF
:1002E0000FBE0F901F9018951F920F920FB60F928E
:1002F00011242F933F934F935F936F937F938F932B
:100300009F93AF93BF93EF93FF93E0918500F0919C
:1003100086000995FF91EF91BF91AF919F918F91C9
:100320007F916F915F914F913F912F910F900FBEF1
:100330000F901F9018951F920F920FB60F921124D5
:100340002F933F934F935F936F937F938F939F93DD
:10035000AF93BF93EF93FF93E0917500F091760018
:100360000995FF91EF91BF91AF919F918F917F91EF
:100370006F915F914F913F912F910F900FBE0F9012
:100380001F9018951F920F920FB60F9211242F9362
:100390003F934F935F936F937F938F939F93AF930D
:1003A000BF93EF93FF93E0918B00F0918C00099540
:1003B000FF91EF91BF91AF919F918F917F916F913D
:1003C0005F914F913F912F910F900FBE0F901F9013
:1003D00018951F920F920FB60F9211242F933F93EF
:1003E0004F935F936F937F938F939F93AF93BF933D
:1003F000EF93FF93E0916B00F0916C000995FF91F2
:10040000EF91BF91AF919F918F917F916F915F918C
:100410004F913F912F910F900FBE0F901F90189505
:100420001F920F920FB60F9211242F933F934F9369
:100430005F936F937F938F939F93AF93BF93EF934C
:10044000FF93E0918700F09188000995FF91EF916B
:10045000BF91AF919F918F917F916F915F914F91DC
:100460003F912F910F900FBE0F901F9018951F92E4
:100470000F920FB60F9211242F933F934F935F93D8
:100480006F937F938F939F93AF93BF93EF93FF935C
:10049000E0917100F09172000995FF91EF91BF9189
:1004A000AF919F918F917F916F915F914F913F910C
:1004B0002F910F900FBE0F901F9018951F920F92C3
:1004C0000FB60F9211242F933F934F935F936F9327
:1004D0007F938F939F93AF93BF93EF93FF93E0919D
:1004E0006F00F09170000995FF91EF91BF91AF916E
:1004F0009F918F917F916F915F914F913F912F913C
:100500000F900FBE0F901F9018951F920F920FB66D
:100510000F9211242F933F934F935F936F937F9389
:100520008F939F93AF93BF93EF93FF93E0918900D5
:10053000F0918A000995FF91EF91BF91AF919F9142
:100540008F917F916F915F914F913F912F910F907C
:100550000FBE0F901F9018951F920F920FB60F921B
:1005600011242F933F934F935F936F937F938F93B8
:100570009F93AF93BF93EF93FF93E0918100F0912E
:1005800082000995FF91EF91BF91AF919F918F915B
:100590007F916F915F914F913F912F910F900FBE7F
:1005A0000F901F9018951F920F920FB60F92112463
:1005B0002F933F934F935F936F937F938F939F936B
:1005C000AF93BF93EF93FF93E0916000F0916100D0
:1005D0000995FF91EF91BF91AF919F918F917F917D
:1005E0006F915F914F913F912F910F900FBE0F90A0
:1005F0001F9018951F920F920FB60F9211242F93F0
:100600003F934F935F936F937F938F939F93AF939A
:10061000BF93EF93FF93E0917300F09174000995FD
:10062000FF91EF91BF91AF919F918F917F916F91CA
:100630005F914F913F912F910F900FBE0F901F90A0
:1006400018951F920F920FB60F9211242F933F937C
:100650004F935F936F937F938F939F93AF93BF93CA
:10066000EF93FF93E0916900F0916A000995FF9183
:10067000EF91BF91AF919F918F917F916F915F911A
:100680004F913F912F910F900FBE0F901F90189593
:100690001F920F920FB60F9211242F933F934F93F7
:1006A0005F936F937F938F939F93AF93BF93EF93DA
:1006B000FF93E0918300F09184000995FF91EF9101
:1006C000BF91AF919F918F917F916F915F914F916A
:1006D0003F912F910F900FBE0F901F9018951F9272
:1006E0000F920FB60F9211242F933F934F935F9366
:1006F0006F937F938F939F93AF93BF93EF93FF93EA
:10070000E0917F00F09180000995FF91EF91BF91FA
:10071000AF919F918F917F916F915F914F913F9199
:100720002F910F900FBE0F901F9018951F920F9250
:100730000FB60F9211242F933F934F935F936F93B4
:100740007F938F939F93AF93BF93EF93FF93E0912A
:100750007900F0917A000995FF91EF91BF91AF91E7
:100760009F918F917F916F915F914F913F912F91C9
:100770000F900FBE0F901F9018951F920F920FB6FB
:100780000F9211242F933F934F935F936F937F9317
:100790008F939F93AF93BF93EF93FF93E0917B0071
:1007A000F0917C000995FF91EF91BF91AF919F91DE
:1007B0008F917F916F915F914F913F912F910F900A
:1007C0000FBE0F901F9018951F920F920FB60F92A9
:1007D00011242F933F934F935F936F937F938F9346
:1007E0009F93AF93BF93EF93FF93E0917700F091C6
:1007F00078000995FF91EF91BF91AF919F918F91F3
:100800007F916F915F914F913F912F910F900FBE0C
:100810000F901F9018951F920F920FB60F921124F0
:100820002F933F934F935F936F937F938F939F93F8
:10083000AF93BF93EF93FF93E0916700F09168004F
:100840000995FF91EF91BF91AF919F918F917F910A
:100850006F915F914F913F912F910F900FBE0F902D
:100860001F9018951F920F920FB60F9211242F937D
:100870003F934F935F936F937F938F939F93AF9328
:10088000BF93EF93FF93E0916D00F0916E00099597
:10089000FF91EF91BF91AF919F918F917F916F9158
:1008A0005F914F913F912F910F900FBE0F901F902E
:1008B0001895813069F0813028F0823079F08330EA
:1008C000C1F412C081E060E14FEF0E9497000895EB
:1008D00081E060E24FEF0E949700089581E060E4BC
:1008E0004FEF0E949700089581E060E84FEF0E946B
:1008F00097000895813069F0813028F0823079F0D6
:100900008330C1F412C081E060E14FEF0E94D60055
:10091000089581E060E24FEF0E94D600089581E0E3
:1009200060E44FEF0E94D600089581E060E84FEF49
:100930000E94D6000895813069F0813028F082301D
:1009400079F08330C1F412C081E060E140E00E94A0
:10095000D600089581E060E240E00E94D60008954C
:1009600081E060E440E00E94D600089581E060E804
:1009700040E00E94D6000895813061F0813028F077
:10098000823069F08330A1F40FC081E060E10E9401
:100990001101089581E060E20E941101089581E053
:1009A00060E40E941101089581E060E80E94110155
:1009B0000895813069F0813028F0823079F08330F9
:1009C000C1F412C082E060E140E00E949700089507
:1009D00081E064E040E00E949700089580E064E0D8
:1009E00040E00E949700089580E068E040E00E94A7
:1009F000970008958130E9F0813030F0823061F164
:100A0000833009F04FC03BC082E060E10E942A01C0
:100A1000813009F048C082E390E00E94160682E02F
:100A200060E10E942A0191E0813009F443C090E026
:100A300041C081E064E00E942A018130B1F582E387
:100A400090E00E94160681E064E00E942A0191E095
:100A5000813081F190E02EC080E064E00E942A01A4
:100A6000813029F582E390E00E94160680E064E080
:100A70000E942A0191E08130E9F090E01BC080E003
:100A800068E00E942A018130A1F482E390E00E9494
:100A9000160680E068E00E942A0191E0813051F062
:100AA00090E008C0089590E005C090E003C090E099
:100AB00001C090E0892F089580E060E042E020E0EE
:100AC00000E0EE24E3940E94D00581E00E945904E6
:100AD00082E00E94590483E00E94590480E00E9451
:100AE000D90480E00E94FA04882351F083E00E9438
:100AF0007A040E94C30588EE93E00E941606F1CFA7
:100B000083E00E949B0481E00E947A040E94C30556
:100B100088EE93E00E94160681E00E949B0483E029
:100B20000E947A040E94C30588EE93E00E94160694
:100B300083E00E949B0482E00E947A040E94C30525
:100B400088EE93E00E94160682E00E949B04C9CFC3
:100B5000AB01BC01411551056105710561F40895B2
:100B60000196E5E08C3D9E07D9F74150504060402A
:100B7000704019F4089520E030E0C901F1CF82BF40
:100B8000089582B7089583B7887F83BF93B7809114
:100B90006200892B83BF089583B7887F83BF089540
:100BA000EF920F93442319F40E94CC053CC093B7F5
:100BB000892B842B83BF4093620022BF603171F088
:100BC000613118F4662331F014C0603259F060339B
:100BD00081F40CC083B78F7C83BF0BC083B7806167
:100BE00083BF07C083B7806283BF03C083B78063BE
:100BF00083BF0CBF81E0E81659F0E81620F082E0D0
:100C0000E81689F40BC00E94490189B719BE0BC0D0
:100C10000E94450189B7816089BF05C00E944501D6
:100C200089B7826089BF0F91EF900895CF93DF93CA
:100C3000EC01109263001092640010926500109213
:100C4000660080E30E94BF05CC0FDD1FCC0FDD1FC7
:100C5000CC0FDD1FAE0160E070E0809163009091E9
:100C60006400A0916500B0916600481759076A07B3
:100C70007B0798F7DF91CF910895DC01CB011092AB
:100C80006300109264001092650010926600009755
:100C9000A105B10531F080EF0E94BF050E94C1059A
:100CA000FDCF88B7816088BF0895109263001092CD
:100CB000640010926500109266008BE90E94BF05E7
:100CC0008091630090916400A0916500B0916600EE
:100CD00082309105A105B10598F3089580916300D4
:100CE00090916400A0916500B09166000196A11DED
:100CF000B11D8093630090936400A0936500B0934E
:100D00006600089508950895089508950895089532
:080D100008950895F894FFCF47
:020D18006E0665
:00000001FF
